S01700004175746F6D617469635F77617465722E73726563E4
S113000012C02CC02BC02AC029C028C070C026C072
S113001025C024C023C022C021C020C029C01EC0C6
S11300201DC01CC01BC011241FBECFE5D4E0DEBF21
S1130030CDBF10E0A0E6B0E0ECEEF1E002C0059028
S11300400D92A236B107D9F720E0A2E6B0E001C0D4
S11300501D92AA36B207E1F799D0C6C0D1CF3E9A15
S113006086B18F6886B978940895389A369A089537
S11300701F920F920FB60F9211248F939F9384B106
S113008095B190936300809362009F918F910F903C
S11300900FBE0F901F90189590E099D0089580910D
S11300A064009091650008958091660090916700C6
S11300B00895909365008093640008959093670079
S11300C08093660008951FBC1EBC1DBC1CBC8EB56D
S11300D088608EBD85E294EF9BBD8ABD89B780613F
S11300E089BF789408958EB583608EBD08951F925C
S11300F00F920FB60F9211242F933F934F935F9358
S11301006F937F938F939F93AF93BF93EF93FF93DB
S1130110E4E6F0E08081918101969183808384817B
S1130120958101969583848380819181CC973CF05D
S113013011821082828193810196938382838091BC
S11301406800909169008837910529F4109269003C
S1130150109268008ADFFF91EF91BF91AF919F9158
S11301608F917F916F915F914F913F912F910F905C
S11301700FBE0F901F90189580E090E09FDF80E005
S113018090E097DF0895B99AC1980895FCDF67DF7E
S11301906CDF99DFA8DFC1E080916000813061F0FD
S11301A083DF18161906C4F7C19AC09360006C2F38
S11301B082E072DFE1DFF0CF72DF44976CF3C19825
S11301C01092600060E082E067DFD6DFE5CF262F83
S11301D0E199FECF9FBB8EBB2DBB0FB6F894E29A7C
S10F01E0E19A0FBE01960895F894FFCF39
S10501EC01000C
S9030000FC
